:100000003BC1000056C1000054C1000052C10000B5
:1000100050C100004EC100004CC100004AC10000A8
:1000200048C1000046C1000044C100000C94B80F54
:1000300040C100003EC100003CC100003AC10000C8
:1000400038C1000036C1000034C1000032C10000D8
:1000500030C100002EC100002CC100002AC10000E8
:1000600028C1000026C1000024C1000022C10000F8
:1000700020C10000BD09DF09390BDF09390B240A53
:10008000470A390B010B100B1E0E240E5E0E710E6B
:10009000610E890E790E100F9E0E100F100F100FAB
:1000A000100F100F100F100F100F100F100F100F58
:1000B000100FE40EF50EFE0E024600398E6478DA5B
:1000C000EDD1310100200CC0B0ED4306784308D2D9
:1000D000F7600296464257DC32C6D9330000000072
:1000E00000000080D74992244992A4FFCBE675FF17
:1000F0005F7161022D0D0678DA73FB0F04FC000FAF
:10010000AB04527D2C2276657273696F6E223A7B46
:10011000226E616D65223A22312E38222C227072B5
:100120006F746F636F6C223A34377D7D002C226FC1
:100130006E6C696E65223A00222C2022706C617907
:10014000657273223A7B226D6178223A007B2264C9
:1001500065736372697074696F6E223A22004C5540
:10016000464120524E444953204164617074657287
:10017000000101010002020100020101000301016E
:100180000004010100060101001101010007010145
:10019000000A0101000B0101000C0101000D010129
:1001A000000E010100110101001401010001010212
:1001B0000002010200030102000401020005010225
:1001C000000101010102010101030101010401011A
:1001D0000101010201020102010301020109023EC3
:1001E00000020100C03209040000010202FF000504
:1001F00024001001042402000524060001070583E1
:10020000030800FF09040100020A000000070502BC
:1002100002200005070581022000051201100102DD
:10022000000008EB034C2001000102000128034CF0
:1002300000550046004100200052004E0044004995
:1002400000530020004300440043002000440065A8
:10025000006D006F00000018034400650061006E2F
:10026000002000430061006D006500720061000025
:10027000000403090400007F11241FBECFEFD4E067
:10028000DEBFCDBF11E0A0E0B1E0EAE0F5E302C0DF
:1002900005900D92AC35B107D9F714E0ACE5B1E0AB
:1002A00001C01D92A534B107E1F70E9459100C94CA
:1002B000831AA6CE20917302309174022F3F31052C
:1002C00009F058F4A9014F5F5F4F509374024093B7
:1002D0007302F901ED58FE4F808308952091730257
:1002E000309174022F3F310509F058F4A9014F5F96
:1002F0005F4F5093740240937302F901ED58FE4F23
:10030000808308951F93CF93DF9300D0CDB7DEB7DE
:10031000182F892F6A837983E1DF812FDFDF7981CD
:10032000872FDCDF6A81862F0F900F90DF91CF91AE
:100330001F91D4CF8091C80087FF08C08091C8006A
:1003400087FF07C08091CE0090E008958EEF9FEF69
:1003500008958FEF9FEF08959091C80095FFFCCF0F
:100360008093CE0080E090E008958091310487FD75
:1003700005C08091E80080FF0EC012C08091E800A7
:1003800082FD05C080913E048111F8CF08958091CF
:10039000E8008B7708C080913E048111EACF089570
:1003A0008091E8008E778093E800089520913704CB
:1003B000309138042617370748F06115710539F474
:1003C0002091E8002E772093E80001C0B90120E0D9
:1003D00061157105A1F130913E04332309F443C046
:1003E000353009F442C03091E80033FD38C0309117
:1003F000E80032FD26C03091E80030FFE9CF2091BF
:10040000F20030E0FC01281B390BCF01820F931F53
:100410006115710549F08830910530F48191809320
:10042000F10061507109F1CF21E0089709F020E057
:100430008091E8008E778093E800CF01C9CF211129
:10044000CACF8091E80082FD0CC080913E048823D1
:1004500051F0853051F08091E80083FFF2CF81E0C8
:10046000089580E0089582E0089583E00895FC01F6
:10047000862F82958F706F708A3010F0895A01C074
:10048000805D80836A3010F0695A01C0605D6183CD
:10049000128208957F928F929F92AF92BF92CF92D5
:1004A000DF92EF92FF920F931F93CF93DF93EC01B4
:1004B0006A017B010AE010E0712C20E03AEC4AE985
:1004C0005BE38AE0882E912CA12CB12C80E0C2162F
:1004D000D306E406F50630F08F5FC21AD30AE40AA9
:1004E000F50AF5CF711002C0882331F0FE01E70D47
:1004F000F11D805D80837394CA01B901A501940147
:100500000E943E1A0150110901151105F9F67110EA
:1005100004C080E3888377247394C70DD11D1882AB
:10052000DF91CF911F910F91FF90EF90DF90CF90CF
:10053000BF90AF909F908F907F900895E091BB0205
:10054000E03540F491E09E0F9093BB02F0E0E75A53
:10055000FC4F808308951F93CF93DF931F92CDB7F5
:10056000DEB7182F80E06983E9DF80E0E7DF812FC5
:1005700086958695E3DF812F8295880F880F807C92
:100580008160DCDF80E0DADF80E0D8DF80E0D6DF8A
:100590006981862F0F90DF91CF911F91CFCFEF927E
:1005A000FF921F93CF93DF931F92CDB7DEB7182F23
:1005B0007C018E2D811B861738F4F70181917F0114
:1005C0006983BCDF6981F5CF0F90DF91CF911F91D7
:1005D000FF90EF900895CF93DF9300D000D0CDB778
:1005E000DEB797FF06C020E8298391958195910990
:1005F00001C0198229E830E097FD09C02150310976
:10060000880F991F29373105B9F720E030E0880FAE
:10061000991FA901569547953981342B3983392F74
:100620003695279522272795232B2A8396958795FC
:100630008B831C8264E0CE010196B1DF0F900F9096
:100640000F900F90DF91CF910895CF93DF93CDB7A7
:10065000DEB728970FB6F894DEBF0FBECDBF97FF69
:1006600006C020E8298391958195910901C01982DE
:1006700029E038E097FD0AC021503109880F991F01
:10068000293F47E03407B1F720E030E0880F991F99
:10069000A901A5E056954795AA95E1F73981342B34
:1006A0003983392F32953F702295207F232B2A835F
:1006B0009C01B4E036952795BA95E1F72B83829596
:1006C000807F8C831D821E821F82188668E0CE0187
:1006D000019665DF28960FB6F894DEBF0FBECDBF3A
:1006E000DF91CF9108951F93CF93DF9300D0CDB7C3
:1006F000DEB7182F892F6A83798320DF812F1EDFD1
:100700007981872F1BDF6A81862F0F900F90DF91F1
:10071000CF911F9113CFCF93DF93A0E02A2F30E02A
:100720002417350744F4FC01E20FF31F2081222334
:1007300011F0AF5FF3CFBA2FEA2FEB1B2A2F30E077
:10074000241735075CF4EB01CE0FD11DFE01E491B7
:10075000EC01C20FD31FE883AF5FEECFDF91CF91E3
:100760000895CF93DF93A0E02A2F30E024173507B8
:1007700044F4FC01E20FF31F2081222311F0AF5F4C
:10078000F3CFBA2FEA2FEB1B2A2F30E024173507BF
:1007900054F4EB01CE0FD11DE881EC01C20FD31F41
:1007A000E883AF5FEFCFDF91CF9108958091580339
:1007B0008F5F813019F08093580302C01092580364
:1007C00080E0909158030895209173023091740253
:1007D0002F3F310509F058F4A9014F5F5F4F509347
:1007E000740240937302F901ED58FE4F808308951F
:1007F000CF93DF939B018D589E4FDC0140E050E08A
:10080000BA01E1E0F0E0E217F30740F4CD91DD91A9
:100810004C0F5D1F611D711D3296F5CFF901EE7F02
:10082000E80FF91F20FF05C08081480F511D611D91
:10083000711DCB01AA27BB270097A105B10539F08F
:1008400066277727480F591F6A1F7B1FF2CFBB27E8
:10085000A72F962F852F762F652F542F4427662795
:100860007727482B592B6A2B7B2B4095509550931B
:10087000630140936201DF91CF910895CF93C82F18
:10088000892F18DD8C2FCF9115CD0F931F93CF9308
:10089000DF931F92CDB7DEB78C01680F601739F078
:1008A000F80181918F01698305DD6981F7CF0F9090
:1008B000DF91CF911F910F910895EF92FF920F93C7
:1008C0001F93CF93DF931F92CDB7DEB77C018B01CF
:1008D00080E095E44983D2DFC701D0DF80E090E07B
:1008E000CDDF80E090E4CADF80E46EDF4981842FB1
:1008F0006BDF80E090E0C2DF64E086E091E0C5DF7E
:1009000064E0C8010F90DF91CF911F910F91FF908C
:10091000EF90BBCFCF93DF9390E06EE170E00E9449
:100920001A1AEC01CD50DD4F10927402109273022E
:1009300010926B0110926A0166E0CE014196A5DF2C
:1009400066E080E091E0A1DF80E098E097DFBE0103
:100950006B5F7F4F46E080E090E0AFDF89819A8156
:100960008DDF8B819C818ADF69857A858B859C856B
:10097000C9DC6D857E858F859889C4DC80E5AEDC19
:100980008B8DACDC80E098E079DF80E090E076DF72
:1009900080E090E0DF91CF9171CFCF93C82F80910D
:1009A000BA02811135C02091B5023091B602232BD5
:1009B00089F420910A01822F992787FD90956EE195
:1009C00070E00E941A1AFC01ED50FD4F88E1838F00
:1009D000822FA0DF2091B5023091B6022F5F3F4FEA
:1009E0003093B6022093B5022091730230917402C5
:1009F0002F3F310509F0D0F4A9014F5F5F4F5093AD
:100A0000740240937302F901ED58FE4FC0830EC08B
:100A10008091B902E82FF0E0EB58FD4FC0838F5F63
:100A20008093B902803410F01092B902CF910895EA
:100A3000CF938091BB0287FF06C0AFDF8091BB02DE
:100A4000881F8827881FA9DFC0E08091BB02C817D4
:100A500040F4EC2FF0E0E75AFC4F80819EDFCF5F3F
:100A6000F4CFCF910895CF93DF93EC0166E084E655
:100A700091E00BDF66E080E091E007DFCE01DF91DF
:100A8000CF91FCCE8091E4009091E50045E6209165
:100A9000EC0020FF21C02091E80020FD21C0209122
:100AA0003E04222389F0253089F02091EB0025FDBA
:100AB0000FC02091E4003091E5002817390739F381
:100AC000415041F0C901E3CF82E0089583E00895E9
:100AD00081E0089584E008952091E80022FFDFCFAF
:100AE00080E0089580916C0190916D01892B61F0F7
:100AF0008091E80085FD0AC08091E8008B778093A3
:100B0000E800C0DF8823A1F380E0089580916C01A4
:100B100090916D01019790936D0180936C0180918C
:100B2000F10008950F931F93CF93DF931F92CDB7DA
:100B3000DEB78C01680F601739F06983D3DFF801E5
:100B400081938F016981F7CF0F90DF91CF911F9132
:100B50000F910895CF93C6DFC82FC4DF2C2F30E04C
:100B6000322F2227A901482BCA01CF910895CF9295
:100B7000DF92EF92FF92CF93DF93B4DF482F50E0E4
:100B800060E070E0F42EEE24DD24CC24ABDFD82F1F
:100B9000A9DFC82FA7DFB701A6016D2B482B5C2B5F
:100BA000CB01BA01DF91CF91FF90EF90DF90CF9012
:100BB000089580915E0190915F019C012F5F3F4FEE
:100BC00030935F0120935E012091600130916101BB
:100BD0002817390708F086CF80E0089580913904FE
:100BE00090913A04009731F0019790933A048093E2
:100BF0003904DFCF80E00895CF93F0DFC82F87FD61
:100C000002C090E009C0EADF90E09695982F88270F
:100C100097958795CF778C2BCF910895AF92BF9200
:100C2000CF92DF92EF92FF920F931F93CF93DF93B8
:100C30007C016B01E1DF8C01C0E0D0E00115110502
:100C400089F0CC15DD0550F45E018FEFA81AB80AC3
:100C5000CE0DDF1DC3DF8883E50101C0BFDF01507A
:100C60001109ECCFDF91CF911F910F91FF90EF9081
:100C7000DF90CF90BF90AF900895CF93AFDFC82F94
:100C8000ADDF2C2F30E0322F2227A901482BCA01DB
:100C9000CF9108951F93CF93DF93A0DFD82F9EDFCE
:100CA000182F9CDFC82F9ADF412F50E060E070E0E2
:100CB000BA01552744277D2B482B8C2F90E0982F85
:100CC0008827AA2797FDA095BA2F482B592B6A2B66
:100CD0007B2BCB01BA01DF91CF911F910895EF9249
:100CE000FF921F93CF93DF931F92CDB7DEB7182FDC
:100CF0007C018E2D811B861738F469836FDFF70125
:100D000081937F016981F5CF0F90DF91CF911F9182
:100D1000FF90EF900895982F953058F59093E90043
:100D2000981739F07091EC002091ED005091F0008F
:100D300003C0242F762F50E021FF19C03091EB0023
:100D40003E7F3093EB003091ED003D7F3093ED001E
:100D50003091EB0031603093EB007093EC00209306
:100D6000ED005093F0002091EE0027FF07C09F5F39
:100D7000D3CF8F708093E90081E0089580E00895DB
:100D80000F931F93CF93DF93CDB7DEB7AA970FB61C
:100D9000F894DEBF0FBECDBF80913E04882309F4D6
:100DA000EAC48091E9008F709091EC0090FF02C03E
:100DB00010E801C010E0182B1092E9008091E800C3
:100DC00083FF65C4E1E3F4E08091F100819324E0C6
:100DD000E933F207C9F780913204882321F081308A
:100DE00009F481C2B7C280913104813209F0B2C2E4
:100DF0008091E800877F8093E8008091370490918C
:100E00003804009729F42091E8002B772093E8001C
:100E10002DEA33E0009739F140913E04442339F143
:100E2000453029F14091E80043FD21C04091E800A0
:100E300042FFF2CFF9019F014091F200442339F0C3
:100E40002091F10021939F0101970097A1F7409114
:100E5000E8004B774093E800DDCF80913E04882383
:100E600031F0853021F08091E80080FFF6CF80914D
:100E7000E8008E778093E8008091AD039091AE03F7
:100E8000A091AF03B091B00384309105A105B105E5
:100E900009F4B7C0B8F482309105A105B105D9F1C4
:100EA0000397A105B10509F055C210926F01109288
:100EB000B1031092B2031092B3031092B4031092D4
:100EC0006E0148C286309105A105B10509F4E7C15C
:100ED00008F495C10897A105B10509F03BC281E06E
:100EE00080936F0188E090E0A0E0B0E88093AD03CC
:100EF0009093AE03A093AF03B093B00380E190E072
:100F0000A0E0B0E08093B1039093B203A093B30349
:100F1000B093B40310C421E020936F0182E090E00D
:100F2000A0E0B0E88093AD039093AE03A093AF032D
:100F3000B093B00384E390E0A0E0B0E08093B1030D
:100F40009093B203A093B303B093B4031092B90388
:100F50001092BA031092BB031092BC0381E090E0A0
:100F6000A0E0B0E08093BD039093BE03A093BF03C5
:100F7000B093C0031092C1031092C2031092C30336
:100F80001092C4038093C5039093C603A093C70334
:100F9000B093C8031092C9031092CA031092CB03F6
:100FA0001092CC038093CD039093CE03A093CF03F4
:100FB000B093D0038CE291E0A0E0B0E08093D10345
:100FC0009093D203A093D303B093D4031092D5038C
:100FD0001092D6031092D7031092D8031092D9031F
:100FE0001092DA031092DB031092DC031092DD03FF
:100FF0001092DE031092DF031092E00320936E0143
:10100000A9C181E080936F018091B9039091BA03E7
:10101000A091BB03B091BC0344E050E060E070E8F5
:101020004093AD035093AE036093AF037093B0034E
:1010300048E150E060E070E04093B1035093B203A8
:101040006093B3037093B4038E3021E09207A2073C
:10105000B10509F4B7C008F058C0863021E0920706
:10106000A207B10509F4A4C000F5823021E092077F
:10107000A207B10509F4AFC088F481309140A140C6
:10108000B10509F008C34CE650E061E771E085EC7A
:1010900093E00E947A1A4CE650E01AC385309140E2
:1010A000A140B10508F497C0F6C28C3021E0920748
:1010B000A207B10590F48A3021E09207A207B1059A
:1010C00008F076C087309140A140B10509F0E3C235
:1010D00080EA96E8A1E0B0E087C08C3021E092077A
:1010E000A207B10509F45FC08D309140A140B10560
:1010F00009F0D1C243E150E06EE571E085EC93E088
:101100000E947A1A43E150E0E3C2863021E0920760
:1011100022E0A207B10510F5813021E0920722E01C
:10112000A207B10508F057C0843121E09207A20759
:10113000B10509F450C0823022E0920721E0A207F5
:10114000B10509F448C081319140A140B10509F0D1
:10115000A2C284E891E0A0E0B0E046C0843021E083
:101160009207A207B20749F1A8F481509140A1402B
:10117000B1400297A105B10508F08DC286E0E0E01C
:10118000F1E0A5ECB3E001900D928A95E1F746E01D
:1011900050E09EC281509140A240B1400397A1050A
:1011A000B105C8F078C28FEF9FEFAFEFB0E01CC081
:1011B00080E091E0A0E0B0E017C081E090E0A0E026
:1011C000B0E012C08091A9039091AA03A091AB0353
:1011D000B091AC0309C01092C5031092C6031092DF
:1011E000C7031092C80308C08093C5039093C60339
:1011F000A093C703B093C80344E050E069C281E004
:1012000080936F018091B9039091BA03A091BB03C1
:10121000B091BC0345E050E060E070E84093AD035E
:101220005093AE036093AF037093B00340E150E07E
:1012300060E070E04093B1035093B2036093B30356
:101240007093B4034091C1035091C2036091C303F2
:101250007091C4038E3021E09207A207B10539F0E6
:1012600083309140A140B14009F465C26DC2DB01F9
:10127000CA010896A11DB11DFC01E355FC4F8081F8
:101280009181A281B3818093A9039093AA03A09333
:10129000AB03B093AC0382E080936E014CC281E05B
:1012A00080936F0186E090E0A0E0B0E88093AD030A
:1012B0009093AE03A093AF03B093B00380E190E0AE
:1012C000A0E0B0E08093B1039093B203A093B30386
:1012D000B093B4031092B5031092B6031092B70303
:1012E0001092B80328C280913104813A99F5809117
:1012F000B1039091B203A091B303B091B403892BD1
:101300008A2B8B2B71F41092AD0381E090E0A0E06A
:10131000B0E08093B1039093B203A093B303B09372
:10132000B4038091E800877F8093E8006091B10367
:101330007091B2038DEA93E039D88091E8008B7701
:101340008093E8001092B1031092B2031092B3039D
:101350001092B4038091E80083FF8BC12091310487
:1013600030913204832F90E08A30910508F081C1DA
:10137000FC01E65CFF4F0C94601A203881F02238A3
:1013800009F077C1809135048F708093E9008091D6
:10139000EB0085FB882780F91092E90006C0809158
:1013A0005C0190915D01911182609091E800977FBE
:1013B0009093E8008093F1001092F1002DC1822FEC
:1013C0008D7F09F056C1222319F0223061F051C1FE
:1013D00080913304813009F04CC1333009F080E052
:1013E00080935D0127C080913304811123C0209137
:1013F00035042F7009F43DC12093E9008091EB0082
:1014000080FF18C08091EB00333011F4806210C06F
:1014100080618093EB0081E090E001C0880F2A9505
:10142000EAF78093EA001092EA008091EB0088606E
:101430008093EB001092E9008091E800877F809311
:10144000E8000E94B50115C1211113C100913304B8
:101450000F778091E3008078802B8093E300809168
:10146000E800877F8093E8000E94B5018091E80042
:1014700080FFFCCF8091E30080688093E30000232D
:1014800011F083E001C082E080933E04F2C0205856
:10149000223008F0EEC080913304909134048C3DEA
:1014A00023E0920779F583E08A838AE289834FB744
:1014B000F894DE01139620E03EE051E2E32FF0E0E5
:1014C00050935700E49120FF03C0E295EF703F5F17
:1014D000EF708E2F90E0EA3010F0C79601C0C096F2
:1014E0008D939D932F5F243149F74FBF8091E80082
:1014F000877F8093E8006AE270E0CE0101960E9447
:10150000D60179C0292F33272230310509F42EC1A5
:101510002330310529F02130310509F0AAC021C15D
:1015200099278130910549F08230910549F0892B46
:1015300009F09FC0E1E7F2E005C0E7E5F2E002C094
:10154000EDE2F2E0849190E0009709F492C02091DE
:10155000E800277F2093E800209137043091380479
:101560002817390708F4C90120E00097B9F1309134
:101570003E04332309F43FC0353009F43CC03091B8
:10158000E80033FD38C03091E80032FF05C080919B
:10159000E80082FF26C02FC03091E80030FFE5CF81
:1015A0002091F20030E02E1B3F0BA9014E0F5F1F70
:1015B000009749F04830510530F444914093F100D0
:1015C00031960197F2CF21E04830510509F020E033
:1015D0003091E8003E773093E800C7CF2111C7CFA4
:1015E000D6CF80913E04882331F0853021F0809160
:1015F000E80083FFCCCF8091E8008B778093E800F0
:1016000038C02038B1F58091E800877F8093E800EA
:1016100080913D048093F1008091E8008E770FCF98
:10162000211127C090913304923018F58091E80081
:10163000877F8093E80090933D040E94B5018091DC
:101640003D04882381F084E080933E0442E261E817
:1016500081E061DB42E260E882E05DDB42E061EC78
:1016600083E059DB06C08091E30087FDECCF81E089
:10167000EBCF8091E80083FF0AC08091E800877F6C
:101680008093E8008091EB0080628093EB001F70F4
:101690001093E90070C08BEB90E0A0E0B0EC809379
:1016A000B9039093BA03A093BB03B093BC03109209
:1016B000BD031092BE031092BF031092C00310929C
:1016C000C1031092C2031092C3031092C40342CE0E
:1016D0001092B9031092BA031092BB031092BC038C
:1016E00060E070E08091B1039091B203A091B303E8
:1016F000B091B403840F951FA61FB71F8093B10349
:101700009093B203A093B303B093B4034093BD038B
:101710005093BE036093BF037093C00380E190E0D9
:10172000A0E0B0E08093C1039093C203A093C303F1
:10173000B093C4030FCE1092B9031092BA03109263
:10174000BB031092BC0306CE8BEB90E0A0E0B0ECA4
:101750008093B9039093BA03A093BB03B093BC03E7
:10176000F9CD82E190E0EBE1F2E0F1CE8EE390E0A2
:10177000EDEDF1E0ECCEAA960FB6F894DEBF0FBE09
:10178000CDBFDF91CF911F910F910895CF93DF933C
:1017900000D000D0CDB7DEB764E0CE0101969FDA6D
:1017A00069817A81262F30E0220F331F3327872F5C
:1017B000881F8827881F282B8B8149E850E0421B0F
:1017C000530B57FD0CC04031510564F490E0972B4A
:1017D000906802C0969587954A95E2F705C08FEF0D
:1017E0009FE702C080E090E067FF03C0919581957C
:1017F00091090F900F900F900F90DF91CF91089566
:10180000CF93DF93CDB7DEB728970FB6F894DEBF3E
:101810000FBECDBF68E0CE01019661DAE9816A8131
:1018200070E0AB015E2B407F5F77F4E05595479504
:10183000FA95E1F78B81FC8129E034E0241B350B1C
:1018400037FD1CC020313105E4F490E033E0880F0F
:10185000991F3A95E1F7762F6627770F770F770F65
:10186000862B972B3F2F329536953770832B9068B8
:1018700002C0969587952A95E2F705C08FEF9FE7FE
:1018800002C080E090E0E7FF03C091958195910947
:1018900028960FB6F894DEBF0FBECDBFDF91CF9173
:1018A0000895CF93DF93EC01C038D10548F08068EC
:1018B0000E949E02CE01880F892F881F990B919557
:1018C000DF91CF910C949E02EF92FF920F931F93A2
:1018D000CF93DF938C01F62E8FEF681307C0F801CA
:1018E00001900020E9F73197FE2EF01A8F2D90E03D
:1018F000D8DFE02EC02FD12F8C2F8E198F1520F41A
:1019000089910E949E02F8CFDF91CF911F910F9194
:10191000FF90EF900895EF92FF920F931F93CF9354
:10192000DF9300D000D01F92CDB7DEB7282FE82E6E
:10193000F12CC70166E370E00E941A1A8C0104546E
:101940001D4F60E2620FCE0101960E943702109295
:10195000BB028CE00E949E02C7018096A2DF6FEF5F
:10196000CE010196B1DF6FEFC8018596ADDFF801BA
:1019700062817381882777FD8095982F0E94730379
:10198000F80164817581882777FD8095982F0E94E2
:101990007303F80160857185882777FD8095982FFE
:1019A0000E947303F801828D0E949E02F801838DCC
:1019B0000E949E0280E00E949E0280E00E949E02A1
:1019C000E5E7F2E084910E949E02E6E7F2E084916E
:1019D0000E949E02E7E7F2E084910E949E0228D8CE
:1019E0000F900F900F900F900F90DF91CF911F915C
:1019F0000F91FF90EF90089520917302309174023F
:101A000080916A0190916B01409170015091710138
:101A1000452B51F4281B390B309371012093700131
:101A200090933C0480933B040895CF93DF9390E020
:101A30006EE170E00E941A1AFC01ED50FD4FC0915A
:101A40007302D091740280916A0190916B01C81B5E
:101A5000D90BD58FC48F838D8B7019F081E0878B64
:101A6000128ECE010E97909383018093840164E1DE
:101A700070E08EE090E00E94F80380916201909106
:101A8000630190938B0180938C01CE014C979093CE
:101A9000A5018093A601BE016A5171098AE190E017
:101AA0000E94F80380916201909163019093A501D7
:101AB0008093A601209173023091740280916A0193
:101AC00090916B014091700150917101452B51F43F
:101AD000281B390B309371012093700190933C04C3
:101AE00080933B04DF91CF9108952F923F924F92C4
:101AF0005F926F927F928F929F92AF92BF92CF929E
:101B0000DF92EF92FF920F931F93CF93DF9300D05A
:101B1000CDB7DEB7ADB6BEB68093F20290E066E315
:101B200070E00E941A1A8C0104541D4F512C212C74
:101B3000312CBDE2EB2EF12C680125E2C20ED11C46
:101B400020915E0130915F0180916001909161016F
:101B50002817390708F07CC16FEF7FEF70933A04C4
:101B60006093390449D890933A048093390436D865
:101B7000F80191A1911135C0811156C03DD88F97C0
:101B800031F17090F202872C912CC4016EE170E06B
:101B90000E941A1AFC01ED50FD4F8081857061F0A2
:101BA00021E1238F8081887F82608083178A872D3F
:101BB0000E948A04872D39DFC40166E370E00E9429
:101BC0001A1AFC01E852FD4F80818F77808360E014
:101BD00070E080E090E022D850D80ED8F80181A3C0
:101BE0002DC0913089F4882351F08130E9F468E008
:101BF000C60175D8F801858D8064858F25C0F801F0
:101C0000858D8260858F1AC0923071F481110CC06D
:101C100060E170E0C60102D8F80115AA858D8860E0
:101C2000858F23E021A30AC090E08831910508F058
:101C3000F7C0FC01EC5BFF4F0C94601AF801858D36
:101C40008061858F27D8ECC00E94FC059C018536F9
:101C5000910510F024E630E0422F2F5F3F4F6DB723
:101C60007EB7621B730B0FB6F8947EBF0FBE6DBFBD
:101C7000EDB7FEB731963F011F012C0180E0411402
:101C80005104A1F0841770F421E0280F4301880E5D
:101C9000911C2A8349830E94EE05F40180832A81E6
:101CA000822F4981F1E04F1A5108E9CF552453940E
:101CB000540EF301E80FF11D1082B2C00E944A06D3
:101CC00091C09EDDF801938382839ADDF8019583AC
:101CD000848396DDF8019783868392DDF8019187EE
:101CE00080870E94EE05F801948D80FB96F9948F11
:101CF00097C086DDF8019383828382DDF8019583A6
:101D000084837EDDF801978386837ADDF8019187ED
:101D100080873CDDF8019387828738DD9C01F801DC
:101D20009587848782859385B7010E942B1A628FDD
:101D3000C901B7010E942B1A638FD3CF0E94EE0511
:101D40000E94EE050E94EE05482E0E94EE05882EA8
:101D50000E94EE050E94EE050E94EE050E94EE052F
:101D6000982E0E94EE050E943D060E94EE050E94FC
:101D70003D060E943D063C018F3FFFEF9F0751F457
:101D80000E94EE050E94EE050E94EE052FE0291547
:101D900040F446C031E0631A710890F30E94EE05EA
:101DA000F9CF742C770C770C882D829586958695C3
:101DB000837087298430A1F59092B70290927201C6
:101DC00071E07093B8022CC060E070E080E090E0B9
:101DD0000E940E060E94EE050E94EE050E94EE058E
:101DE0000E94EE050E94EE051BC00E94EE058111C7
:101DF00017C0F80180A1816080A312C060E070E08C
:101E000080E090E00E940E060E943D064C01811485
:101E1000910431F00E94EE05F1E08F1A9108F7CF9E
:101E20008091390490913A04892B09F489CE8091EC
:101E3000390490913A049C012150310930933A04BD
:101E400020933904892B09F47BCE0E94D905EFCF6A
:101E50005520D9F1780125E2E20EF11CF70101903D
:101E60000020E9F78F01015011090E191F0981E0C7
:101E70008093BA021092BB0282E00E949E02C801C7
:101E80009927850D911D0E960CDD6AE081E591E0A4
:101E90000E94CF02602FC7010E94CF028EE30E94F2
:101EA0009E0280E20E949E02652DC1010E94CF0227
:101EB00082E20E949E028DE70E949E0280E00E94C4
:101EC0009E020E9418051092BA020FB6F894BEBE88
:101ED0000FBEADBE0F900F90DF91CF911F910F916C
:101EE000FF90EF90DF90CF90BF90AF909F908F903A
:101EF0007F906F905F904F903F902F900895CF927A
:101F0000DF92FF920F931F93CF93DF931F92CDB772
:101F1000DEB7F82E8B0199830E94420599818111C9
:101F20001EC0CF2CD92E01151105C1F08091E800FB
:101F300085FD0CC08091E8008E778093E8000E94B8
:101F4000C0060E944205882371F309C0F601819101
:101F50006F018093F10001501109E5CF80E00F90EF
:101F6000DF91CF911F910F91FF90DF90CF90089557
:101F70001F920F920FB60F9211242F933F934F93FE
:101F80005F936F937F938F939F93AF93BF93EF93E1
:101F9000FF938091E10082FF09C08091E20082FFFF
:101FA00005C08091E1008B7F8093E1008091E1008A
:101FB00080FF16C08091E20080FF12C08091E20095
:101FC0008E7F8093E2008091E20080618093E20046
:101FD0008091D80080628093D80019BC10923E0492
:101FE0008091E10084FF2EC08091E20084FF2AC02E
:101FF00084E089BD86E089BD09B400FEFDCF8091F3
:10200000D8008F7D8093D8008091E1008F7E8093EF
:10201000E1008091E2008F7E8093E2008091E200F7
:1020200081608093E20080913D04882311F084E078
:1020300007C08091E30087FF02C083E001C081E018
:1020400080933E048091E10083FF22C08091E200F2
:1020500083FF1EC08091E100877F8093E10082E0D2
:1020600080933E0410923D048091E1008E7F809326
:10207000E1008091E2008E7F8093E2008091E20097
:1020800080618093E20042E060E080E00E948B0685
:10209000FF91EF91BF91AF919F918F917F916F9140
:1020A0005F914F913F912F910F900FBE0F901F9016
:1020B0001895CF93DF93CDB7DEB7C254D1090FB6D1
:1020C000F894DEBF0FBECDBF84B7877F84BF88E1A1
:1020D0000FB6F89480936000109260000FBE80E00D
:1020E00090E020E80FB6F89420936100809361009F
:1020F0000FBE809163008E7F8093630081E08093A8
:102100002F031092E2001092E1008091D8008F77A7
:102110008093D8008091D80080688093D800809107
:10212000D8008F7D8093D80084E089BD86E089BD8A
:1021300009B400FEFDCF10923E0410923D041092AF
:102140005D0110925C0142E060E080E00E948B063D
:102150008091E1008E7F8093E1008091E2008160B8
:102160008093E2008091E20088608093E200809199
:10217000E0008E7F8093E000E0E3F3E0F093400422
:10218000E0933F04F0934204E09341048EE0DF01CA
:102190001D928A95E9F783E0809333038CEA91E0FE
:1021A00090933903809338038AE991E090933B033D
:1021B00080933A03569A5E981BB878948091F30204
:1021C000887F8093F30280911103887F80931103AD
:1021D00086E3ECEBF2E0DF011D928A95E9F783E0FC
:1021E0008093E90080913E04843009F030C48091EE
:1021F000E80080FF1BC080916F018823B9F088E060
:10220000EEE0F1E0DE01119601900D928A95E1F782
:1022100040E050E068E070E0CE01019670DE809111
:10222000E8008E778093E80010926F0180916E0134
:10223000823009F00CC48093E9008091E80082FFAD
:10224000B7C30E94420581111FC00CE210E0FE01DD
:1022500031967F018091E80085FD0CC08091E800F7
:102260008B778093E8000E94C0060E944205882375
:1022700041F00AC08091F100D7018D937D0101509A
:1022800011090115110531F70D851E8510935303B2
:10229000009352030E94420510936D0100936C015C
:1022A0000830110508F472C30E9472050E9472057D
:1022B0000E9472050E9472050E9472050E947205BA
:1022C00066E084E691E00E9492050E9472058830E3
:1022D00009F05CC30E947205863009F060C00E945C
:1022E000AA050E94AA058C010E94AA050E94AA05BF
:1022F000813009F04BC360E1CE018D960E949205BA
:1023000010923F0310923E03DD24D394E0903E03ED
:10231000F0903F03E4E0EE16F10480F40E947205B1
:10232000F701EA5FFE4F90818913D12CBFEFEB1AC2
:10233000FB0AF0923F03E0923E03E8CFDD2009F470
:1023400025C30E94D60390937402809373029093E6
:102350006B0180936A0186E098E00E94330581E07A
:1023600090E00E943E04C8010E943E0484E096E092
:102370000E943E0482E090E00E943E0466E080E01D
:1023800091E00E94450464E086E091E00E944504EB
:102390006AE0CE018D960E9445042EDBF7C20E94B2
:1023A0007205853409F0F2C20E9472050E94AA05E6
:1023B0003C0190935103809350030E9472050E9448
:1023C00072050E9472050E9472050E9472050E94A9
:1023D0007205D82E0E94AA0564E08CE493E00E9466
:1023E000920546E1E42E41E0F42E06E011E0BB2424
:1023F000B394D701CD907D01C0940E947205F8017D
:1024000091918F01891721F08C218F3F09F0B12C18
:10241000FAE1EF16F1E0FF0661F721E1D2120DC0FB
:102420000E94AA0590934B0380934A030E94AA0539
:102430009093490380934803A9C2BB2009F4A6C224
:1024400031E0D31629F046E0D41609F477C09EC2D5
:102450008091440390914503A0914603B0914703B6
:102460000196A11DB11D8093440390934503A09351
:102470004603B09347030E947205182F0E9472050D
:102480000E94AA05183009F081C20E94D6039093D9
:1024900074028093730290936B0180936A0180E0D1
:1024A00098E00E94330541E06CE473E0C3010E94B0
:1024B0005D0480E090E00E943E0480E090E00E9495
:1024C0003E0468E16616710441F00E9472050E94A4
:1024D000E40351E0651A7108F4CF64E170E08EE026
:1024E00090E00E94F803109162010091630167E09F
:1024F00070E082E290E00E94F80300938B01109359
:102500008C01809162019091630190939701809377
:10251000980172DA8091400390914103A0914203A7
:10252000B09143030196A11DB11D80934003909388
:102530004103A0934203B093430328C20E94AA051B
:102540009EAF8DAF90934B0380934A030E94AA05E0
:102550004C01909349038093480374E1671A710812
:10256000709251036092500380911103877031F192
:10257000809112039091130388159905F9F48091C5
:102580001403909115032DAD3EAD82179307B1F45E
:1025900021E0409116035091170360911803709148
:1025A000190380914C0390914D03A0914E03B0917B
:1025B0004F03481759076A077B0709F020E0A22E4E
:1025C000BB24A7FCB094C5016EE170E033D78C0149
:1025D0000D501D4F23962FAF23970E94B7051B0167
:1025E0002C010E94B7056B017C010E947205482FE7
:1025F000469546954C7F22964FAF22970E947205D2
:1026000021968FAF21970E94AA050E94AA050E94D9
:10261000AA0522964FAD2297641A71084451239659
:102620002FAD239721963FAD21974423B1F0415020
:1026300023962FAF239721963FAF219722964FAF36
:1026400022970E94720522964FAD229721963FADA8
:10265000219723962FAD2397E8CF31FF8EC03DED14
:10266000831633E6930609F070C1809111038770D9
:1026700009F06BC18EE1E1E1F3E0DF011D928A9583
:10268000E9F786E3ECEBF2E0DF011D928A95E9F7CA
:102690008091D80280688093D802809164018093F1
:1026A00022038091650180932303809166018093CA
:1026B00024038091670180932503809168018093B2
:1026C00026038091690180932703909213038092DF
:1026D00012032DAD3EAD309315032093140380916A
:1026E0004C0390914D03A0914E03B0914F03809302
:1026F000160390931703A0931803B0931903D20104
:10270000C1010196A11DB11D80931E0390931F036B
:10271000A0932003B09321034AEA5AEABA014093F6
:102720001A0350931B0360931C0370931D03809145
:102730001103887F81608093110310922803109207
:102740002A031092290382E180932C0381E00E94E6
:102750008A0480911A0390911B03A0911C03B091ED
:102760001D030196A11DB11D80931A0390931B03B5
:10277000A0931C03B0931D0307C180916401D8018D
:1027800051968C9351978091650152968C935297F4
:102790008091660153968C9353978091670154966C
:1027A0008C9354978091680155968C93559780919E
:1027B000690156968C93AB2821F43B7009F0C5C093
:1027C000E5C032FF12C08FEF820F90E066E370E049
:1027D00031D6FC01E852FD4F80818F77808384E100
:1027E000F801838F8081887F59C034FF23C0D801CE
:1027F0005C964D915C915D974653510919968D9168
:102800009D910D90BC91A02D4115510521F401968B
:10281000A11DB11D04C0840F951FA11DB11DC816B7
:10282000D90641F4F801118E108E178A818792879C
:10283000A387B487D8018C91982F977030FF30C050
:10284000382F387F923079F480E15B968C93D201F7
:10285000C1010196A11DB11DF80185879687A78743
:10286000B08B30838BC0F80185859685A785B089AC
:102870000196A11DB11D85879687A787B08B81E141
:10288000838F326030838FEF820F90E066E370E0D9
:10289000D1D5FC01E852FD4F80818F7780836EC0D7
:1028A000923021F4887FD8018C9368C06114710440
:1028B00009F46CC0F80185859685A785B0898215D5
:1028C0009305A405B50509F061C0D201C101860DCB
:1028D000971DA11DB11D85879687A787B08B2223E1
:1028E00051F0709261016092600110925F0110924C
:1028F0005E0180E0FAD8D80157968C9157978823CB
:10290000F9F019968D919D910D90BC91A02D809319
:10291000FC029093FD02A093FE02B093FF02F80127
:1029200085859685A785B0898093000390930103E0
:10293000A0930203B093030380E180930E0357C575
:1029400080E1D8015B968C9319C0209200033092ED
:1029500001034092020350920303C092FC02D09202
:10296000FD02E092FE02F092FF0285E180930E03E9
:102970008091F302887F8093F30239C5AA24A3943F
:10298000B12C8A2D0E948A048A2D4FD880916C0127
:1029900090916D01892B19F00E947205F7CF8091FB
:1029A000E8008B778093E800109253031092520353
:1029B00081E08093E9008091E80080FF48C0209189
:1029C0007001309171012115310509F440C0CE012B
:1029D00001964CE2FC0111924A95E9F741E050E082
:1029E00060E070E049835A836B837C83A901445D76
:1029F0005F4F60E070E04D835E836F83788744E2D1
:102A000050E060E070E049875A876B877C87A901B6
:102A100060E070E04D875E876F87788B40E050E024
:102A20006CE270E06CDA6D857E8580916A01909130
:102A30006B0140E050E08D589E4F61DA8091E800D4
:102A40008E778093E80010927101109270010E94BD
:102A5000C0068FE193E00197F1F700C000001092EB
:102A6000F202812C99249394DE0111966D0120E3EA
:102A7000722E3BE0432E31E0532E8091F202811101
:102A8000D2C28091D80287FFCBC283948091280361
:102A90008111C6C281E090E02091700130917101F6
:102AA000232B11F080E090E0892B09F4B9C28091CA
:102AB000DE028F5F8093DE021092B6021092B502A2
:102AC00090920A01109254038091D90286FF11C09E
:102AD0001092BB0281E00E949E0268E081EE92E0CB
:102AE0000E94CF020E9418058091D9028F7B8093AB
:102AF000D9028091D90281FF6AC0ADB6BEB6F2019B
:102B000001900020E9F78F01095910402DB73EB719
:102B1000201B310B0FB6F8943EBF0FBE2DBF4DB733
:102B20005EB74F5F5F4F7A01ADB7BEB711961C928B
:102B300041E050E060E070E0CE018D960E944A02D4
:102B40004091550350E060E070E0C6010E944A02E7
:102B5000A8016DE471E0C7010E948B03A8016BE03E
:102B600071E0C7010E94B103A80168E371E0C701E9
:102B70000E948B03A801BE01635D7F4FC7010E94C5
:102B8000B103A8016DE271E0C7010E948B03A801A7
:102B9000B601C7010E94B103A80163E071E0C7015B
:102BA0000E948B031092BB0280E00E949E026FEF96
:102BB000C7010E94640C0E9418058091D9028D7F84
:102BC0008093D9020FB6F894BEBE0FBEADBE809101
:102BD000D90280FF41C08091D80280FDD9C1809187
:102BE000DE028034C8F180E48093DE02009172013D
:102BF000102F1F708091B702811302C091E101C0B4
:102C000099E01092BB0283E221969FAF21970E9428
:102C10009E02612F84E00E94AB0221969FAD219716
:102C2000892F90E0806594600E94510C0E941805E5
:102C30001092BB0283E20E949E02612F83E00E94F9
:102C4000AB02812F90E0806392600E94510C0E9441
:102C500018050F5F009372012091D90220FF35C043
:102C60008091C6029091C7028115B3ED9B0794F441
:102C7000935D9093C7028093C602822F80628093F7
:102C8000D9028091C2029091C30201969093C3022F
:102C90008093C2028091C6029091C7028130EDE21A
:102CA0009E079CF09D529093C7028093C60280912C
:102CB000D90280628093D9028091C2029091C302AE
:102CC00001969093C3028093C2028091DF0280FF3D
:102CD00003C08E7F8093DF028091DC0280FF1EC0E4
:102CE00020E130E03093BF022093BE0240E85CE078
:102CF0005093C1024093C00260EA7CE07093C3022B
:102D00006093C2023093C5022093C4029091D9020D
:102D100090629093D9028E7F8093DC028091D902D9
:102D200085FF27C01092BB0288E00E949E0280E0CF
:102D300090E00E94250380E090E00E94250380E05F
:102D400090E00E9425038091C6029091C7020E94E4
:102D5000EB028091C8029091C9020E94EB0287E0C9
:102D60000E949E020E9418058091D9028F7D809357
:102D7000D9028091D90282FF2EC01092BB0281E05D
:102D80000E949E0260E470E080E090E00E94730385
:102D900080E00E949E0280E00E949E0280E00E94ED
:102DA0009E0281E00E949E0267E08AE191E00E941B
:102DB000640C80E00E949E020E9418058091D90256
:102DC0009092DA028B7F81608093D9028091D80241
:102DD00088608093D8028091DB02882309F44BC07D
:102DE0001092BB0283E20E949E0262E083E00E9496
:102DF000AB028CEF93E00E94510C0E9418051092D8
:102E0000BB0283E30E949E0262E083E00E94AB0269
:102E10006FEF82E291E00E94640C60E08BE591E04C
:102E20000E94640C6FEF8AE291E00E94640C60E003
:102E30008BE591E00E94640C0E9418051092DB0261
:102E400080E190E09093BF028093BE02A0E8BCE0D6
:102E5000B093C102A093C002E0EAFCE0F093C30289
:102E6000E093C2029093C5028093C4028091D9027C
:102E700080628093D9028091DA028823C9F081317F
:102E800028F01092DA029092DB0212C091E0980FC3
:102E90009093DA02813061F408EB10E0F80184913C
:102EA0000E94CD040F5F1F4FF1E003301F07B1F701
:102EB0008091D90283FF36C060E4C6010E943702C8
:102EC000F60101900020E9F73197EC1980E090E0DD
:102ED0002E2F280F243230F4D601A20FB11D7C9280
:102EE0000196F6CF1DA28DE289878E878B8B888F06
:102EF0008091D902877F8093D9021092BB0282E031
:102F00000E949E026FEFC6010E94640C6FEF81EE7B
:102F100092E00E94640C0E9418058091D90284609E
:102F20008093D9028091D90284FF03C08F7E809361
:102F3000D9028091D90280FF2BC08091D80285FDF3
:102F400027C084FF02C015E001C013E01092BB024D
:102F500080E20E949E0280E090E00E94510C61E0BD
:102F600070E080E090E00E9473036FEF8EE291E0EA
:102F70000E94640C812F90E00E94250380E00E9453
:102F80009E020E9418058091D80280628093D80228
:102F90008091D90280FF3BC08091D80283FD37C069
:102FA0008091BC029091BD022091B90230E0281BB3
:102FB000390B2F7333272115310521F1409173020D
:102FC0005091740214C0FC01EB58FD4F60814F3FDB
:102FD000510509F030F4FA01ED58FE4F60834F5F60
:102FE0005F4F01968034910510F080E090E0215011
:102FF000310948F750937402409373029093BD02D5
:103000008093BC028091D8028E7F8093D8028091F9
:10301000B5029091B602892B19F081E00E94150D3E
:103020009092F2022ACD809255032FAD2F5F2FAFE1
:10303000822F8F7709F0D3C85E9A809156039091C2
:1030400057030196909357038093560381E0809332
:10305000BA028091B802882379F11092BB0289E20A
:103060000E949E026FEF84E491E00E94640C60E293
:1030700070E080E090E00E94730360E072E080E026
:1030800090E00E9473036091B70270E093E0660FD6
:10309000771F9A95E1F7882777FD8095982F0E94F2
:1030A000730380E290E00E94EB028FE30E949E0295
:1030B0000E9418051092B8021092F2028091F2025A
:1030C00081116EC12091D80227FF64C180915603FF
:1030D000909157038F729927892B29F48091D902F7
:1030E00080618093D90223FF12C08091D802877F2C
:1030F0008093D80280E00E948B0C8091B90290E00E
:103100009093BD028093BC0281E08093BA02C0908C
:10311000BE02D090BF024091CA025091CB02E09013
:10312000C002F090C1022091CC023091CD020091FA
:10313000C4021091C5028091D0029091D102C416B0
:10314000D50691F4E216F30679F4E091C202F0910B
:10315000C3026091CE027091CF02E617F70721F407
:103160000817190709F49CC0C41AD50AA6014158CA
:103170005F4F4F3F510580F4E21AF30A970121583F
:103180003F4F2F3F310540F4081B190BC8018158F0
:103190009F4F8F3F9105A8F11092BB0288E10E94DA
:1031A0009E0280E290E00E94510C6091BE027091FC
:1031B000BF02882777FD8095982F0E947303609146
:1031C000C0027091C102882777FD8095982F0E94D8
:1031D00073036091C4027091C502882777FD8095C2
:1031E000982F0E9473038091D6020E949E028091C4
:1031F000D7020E949E0281E00E949E020E94180552
:103200002FC01092BB0287E10E949E0280E290E0F4
:103210000E94510C8C2D0E949E028E2D0E949E02B7
:10322000802F0E949E028091D6020E949E02809171
:10323000D7020E949E0281E00E949E020E94180511
:103240008091C8029091C9029093D5028093D402D4
:103250008091C6029091C7029093D3028093D202CC
:103260008091BE029091BF029093CB028093CA02DC
:103270008091C0029091C1029093CD028093CC02C4
:103280008091C4029091C5029093D1028093D002A4
:103290008091C2029091C3029093CF028093CE029C
:1032A0002091C8023091C9028091D4029091D50238
:1032B0002817390759F42091C6023091C70280912E
:1032C000D2029091D30228173907B9F11092BB02AC
:1032D00086E10E949E020091F202005E10E0C801A9
:1032E0000E94510C8091D6020E949E028091D702CA
:1032F0000E949E0281E00E949E020E941805109288
:10330000BB0289E10E949E02C8010E94510C80917B
:10331000D6020E949E020E9418058091C8029091D8
:10332000C9029093D5028093D4028091C6029091F5
:10333000C7029093D3028093D2028091DF02816012
:103340008093DF028091F20220915603309157035F
:103350002F703327232BF1F490E066E370E06AD0FE
:10336000FC01E454FD4F258D2061258F84819581DA
:1033700097FF10C040E150E05383428360E87CE057
:103380007583648380EA9CE09783868351874087B6
:103390002062258F8091F2028F5F8093F2028ECEA1
:1033A0001092BA02E3EFF2E080E090E02081277013
:1033B000B1F0208D318D2F5F3F4F318F208FDC0199
:1033C000AD50BD4F57962C915797222341F02F5F58
:1033D00057962C9357972B3010F057961C927E9649
:1033E0004E968C33910511F75E980C94EF108091F6
:1033F0004C0390914D03A0914E03B0914F038093E5
:10340000F8029093F902A093FA02B093FB02809124
:103410004A0390914B039093F7028093F6028091B8
:103420004803909149039093F5028093F402A12CF4
:10343000B12CA7CA0024552704C0080E591F880FB5
:10344000991F009729F076956795B8F37105B9F73C
:10345000802D952F089597FB072E16F4009406D023
:1034600077FD08D033D007FC05D03EF490958195C8
:103470009F4F0895709561957F4F0895A1E21A2E90
:10348000AA1BBB1BFD010DC0AA1FBB1FEE1FFF1F08
:10349000A217B307E407F50720F0A21BB30BE40B58
:1034A000F50B661F771F881F991F1A9469F760959F
:1034B0007095809590959B01AC01BD01CF01089559
:1034C000EE0FFF1F0590F491E02D0994AA1BBB1B82
:1034D00051E107C0AA1FBB1FA617B70710F0A61B14
:1034E000B70B881F991F5A95A9F780959095BC0135
:1034F000CD010895FB01DC0102C005900D92415001
:0A3500005040D8F70895F894FFCF6B
:10350A00020002000200C0A837F3FF686900A101A7
:10351A00000000000000FFFFFF0064656661756C33
:10352A00740054726967676572003C3E3C006765C7
:10353A006E657269632E6D6F76656D656E74537014
:10354A006565640072616E646F6D2E636C69636B8E
:0C355A00007B2274657874223A223C0049
:00000001FF
